{
  "contractName": "Payable",
  "abi": [
    {
      "inputs": [],
      "stateMutability": "payable",
      "type": "constructor",
      "payable": true
    },
    {
      "stateMutability": "payable",
      "type": "fallback",
      "payable": true
    },
    {
      "inputs": [],
      "name": "owner",
      "outputs": [
        {
          "internalType": "address payable",
          "name": "",
          "type": "address"
        }
      ],
      "stateMutability": "view",
      "type": "function",
      "constant": true
    },
    {
      "stateMutability": "payable",
      "type": "receive",
      "payable": true
    },
    {
      "inputs": [],
      "name": "getBalance",
      "outputs": [
        {
          "internalType": "uint256",
          "name": "",
          "type": "uint256"
        }
      ],
      "stateMutability": "view",
      "type": "function",
      "constant": true
    },
    {
      "inputs": [],
      "name": "deposit",
      "outputs": [],
      "stateMutability": "payable",
      "type": "function",
      "payable": true
    },
    {
      "inputs": [],
      "name": "notPayable",
      "outputs": [],
      "stateMutability": "nonpayable",
      "type": "function"
    },
    {
      "inputs": [],
      "name": "withdraw",
      "outputs": [],
      "stateMutability": "nonpayable",
      "type": "function"
    },
    {
      "inputs": [
        {
          "internalType": "address payable",
          "name": "_to",
          "type": "address"
        },
        {
          "internalType": "uint256",
          "name": "_amount",
          "type": "uint256"
        }
      ],
      "name": "transfer",
      "outputs": [],
      "stateMutability": "nonpayable",
      "type": "function"
    }
  ],
  "bytecode": "0x6080604052336000806101000a81548173ffffffffffffffffffffffffffffffffffffffff021916908373ffffffffffffffffffffffffffffffffffffffff1602179055506104ed806100536000396000f3fe6080604052600436106100595760003560e01c806312065fe014610062578063273884bd1461008d5780633ccfd60b146100a45780638da5cb5b146100bb578063a9059cbb146100e6578063d0e30db01461010f57610060565b3661006057005b005b34801561006e57600080fd5b50610077610119565b60405161008491906103ea565b60405180910390f35b34801561009957600080fd5b506100a2610121565b005b3480156100b057600080fd5b506100b9610123565b005b3480156100c757600080fd5b506100d06101f9565b6040516100dd91906103af565b60405180910390f35b3480156100f257600080fd5b5061010d600480360381019061010891906102fa565b61021d565b005b6101176102ce565b005b600047905090565b565b600047905060008060009054906101000a900473ffffffffffffffffffffffffffffffffffffffff1673ffffffffffffffffffffffffffffffffffffffff168260405161016f9061039a565b60006040518083038185875af1925050503d80600081146101ac576040519150601f19603f3d011682016040523d82523d6000602084013e6101b1565b606091505b50509050806101f5576040517f08c379a00000000000000000000000000000000000000000000000000000000081526004016101ec906103ca565b60405180910390fd5b5050565b60008054906101000a900473ffffffffffffffffffffffffffffffffffffffff1681565b60008273ffffffffffffffffffffffffffffffffffffffff16826040516102439061039a565b60006040518083038185875af1925050503d8060008114610280576040519150601f19603f3d011682016040523d82523d6000602084013e610285565b606091505b50509050806102c9576040517f08c379a00000000000000000000000000000000000000000000000000000000081526004016102c0906103ca565b60405180910390fd5b505050565b565b6000813590506102df81610489565b92915050565b6000813590506102f4816104a0565b92915050565b6000806040838503121561030d57600080fd5b600061031b858286016102d0565b925050602061032c858286016102e5565b9150509250929050565b61033f81610421565b82525050565b6000610352601483610410565b915061035d8261045d565b602082019050919050565b6000610375600083610405565b915061038082610486565b600082019050919050565b61039481610453565b82525050565b60006103a582610368565b9150819050919050565b60006020820190506103c46000830184610336565b92915050565b600060208201905081810360008301526103e381610345565b9050919050565b60006020820190506103ff600083018461038b565b92915050565b600081905092915050565b600082825260208201905092915050565b600061042c82610433565b9050919050565b600073ffffffffffffffffffffffffffffffffffffffff82169050919050565b6000819050919050565b7f4661696c656420746f2073656e64204574686572000000000000000000000000600082015250565b50565b61049281610421565b811461049d57600080fd5b50565b6104a981610453565b81146104b457600080fd5b5056fea26469706673582212201336659ef94e1ad04236b6dfb38ebaf6282a10f2911a836c2ae02eb17a3d0e6e64736f6c63430008030033",
  "immutableReferences": {},
  "source": "// SPDX-License-Identifier: MIT\npragma solidity ^0.8.3;\n\ncontract Payable {\n\n    // Payable address puede recibir Ether\n    address payable public owner;\n\n    // Payable constructor puede recibir Ether\n    constructor() payable {\n        owner = payable(msg.sender);\n    }\n\n    // Funcin para recibir Ether. msg.data debe estar vaco\n    receive() external payable {}\n\n    // se llama a la funcin Fallback cuando msg.data no est vaco\n    fallback() external payable {}\n\n    // Retorna el saldo de ether almacenado en el contrato\n    function getBalance() public view returns (uint) {\n        return address(this).balance;\n    }\n\n    // Funcin para depositar Ether en este contrato.\n    // Llame a esta funcin junto con algo de Ether.\n    // El saldo de este contrato se actualizar automticamente.\n    function deposit() public payable {}\n\n    // Llame a esta funcin junto con algo de Ether.\n    // La funcin arrojar un error ya que esta funcin no es payable.\n    function notPayable() public {}\n\n    // Funcin para retirar todo el Ether de este contrato.\n    function withdraw() public {\n        // obtener la cantidad de Ether almacenada en este contrato\n        uint amount = address(this).balance;\n\n        // enva todo el Ether al propietario\n        // El propietario puede recibir Ether ya que la direccin del propietario espayable\n        (bool success, ) = owner.call{value: amount}(\"\");\n        require(success, \"Failed to send Ether\");\n    }\n\n    // Funcin para transferir Ether desde el saldo del contrato \n    // a la direccin pasada por parmetro\n    function transfer(address payable _to, uint _amount) public {\n        // Note que \"_to\" es declarada como payable\n        (bool success, ) = _to.call{value: _amount}(\"\");\n        require(success, \"Failed to send Ether\");\n    }\n\n}",
  "sourcePath": "/Users/luisvidela/Development/EducacionIT/blockchain/clase3/payable/contracts/Payable.sol",
  "compiler": {
    "name": "solc",
    "version": "0.8.3+commit.8d00100c.Emscripten.clang"
  },
  "schemaVersion": "3.4.3",
  "updatedAt": "2021-10-01T23:47:32.120Z",
  "networkType": "ethereum",
  "devdoc": {
    "kind": "dev",
    "methods": {},
    "version": 1
  },
  "userdoc": {
    "kind": "user",
    "methods": {},
    "version": 1
  }
}